{
  "contractName": "AMM",
  "abi": [
    {
      "inputs": [
        {
          "internalType": "address",
          "name": "_consumer",
          "type": "address"
        },
        {
          "internalType": "address",
          "name": "_mintContract",
          "type": "address"
        }
      ],
      "stateMutability": "payable",
      "type": "constructor",
      "payable": true
    },
    {
      "inputs": [],
      "name": "consumer",
      "outputs": [
        {
          "internalType": "address",
          "name": "",
          "type": "address"
        }
      ],
      "stateMutability": "view",
      "type": "function",
      "constant": true
    },
    {
      "inputs": [
        {
          "internalType": "uint256",
          "name": "",
          "type": "uint256"
        }
      ],
      "name": "listings",
      "outputs": [
        {
          "internalType": "address",
          "name": "seller",
          "type": "address"
        },
        {
          "internalType": "uint256",
          "name": "amount",
          "type": "uint256"
        },
        {
          "internalType": "uint256",
          "name": "pricePerCCT",
          "type": "uint256"
        }
      ],
      "stateMutability": "view",
      "type": "function",
      "constant": true
    },
    {
      "inputs": [],
      "name": "mintContract",
      "outputs": [
        {
          "internalType": "contract IMintContract",
          "name": "",
          "type": "address"
        }
      ],
      "stateMutability": "view",
      "type": "function",
      "constant": true
    },
    {
      "inputs": [
        {
          "internalType": "uint256",
          "name": "_amount",
          "type": "uint256"
        },
        {
          "internalType": "uint256",
          "name": "_price",
          "type": "uint256"
        }
      ],
      "name": "listTokens",
      "outputs": [],
      "stateMutability": "nonpayable",
      "type": "function"
    },
    {
      "inputs": [],
      "name": "fetchListings",
      "outputs": [
        {
          "components": [
            {
              "internalType": "address",
              "name": "seller",
              "type": "address"
            },
            {
              "internalType": "uint256",
              "name": "amount",
              "type": "uint256"
            },
            {
              "internalType": "uint256",
              "name": "pricePerCCT",
              "type": "uint256"
            }
          ],
          "internalType": "struct AMM.Listing[]",
          "name": "",
          "type": "tuple[]"
        }
      ],
      "stateMutability": "view",
      "type": "function",
      "constant": true
    },
    {
      "inputs": [
        {
          "internalType": "uint256",
          "name": "index",
          "type": "uint256"
        },
        {
          "internalType": "uint256",
          "name": "_amount",
          "type": "uint256"
        }
      ],
      "name": "buyTokens",
      "outputs": [],
      "stateMutability": "payable",
      "type": "function",
      "payable": true
    }
  ],
  "bytecode": "0x6080604052604051610cda380380610cda83398181016040528101906100259190610178565b5f73ffffffffffffffffffffffffffffffffffffffff168273ffffffffffffffffffffffffffffffffffffffff1603610093576040517f08c379a000000000000000000000000000000000000000000000000000000000815260040161008a90610210565b60405180910390fd5b8160025f6101000a81548173ffffffffffffffffffffffffffffffffffffffff021916908373ffffffffffffffffffffffffffffffffffffffff1602179055508060015f6101000a81548173ffffffffffffffffffffffffffffffffffffffff021916908373ffffffffffffffffffffffffffffffffffffffff160217905550505061022e565b5f5ffd5b5f73ffffffffffffffffffffffffffffffffffffffff82169050919050565b5f6101478261011e565b9050919050565b6101578161013d565b8114610161575f5ffd5b50565b5f815190506101728161014e565b92915050565b5f5f6040838503121561018e5761018d61011a565b5b5f61019b85828601610164565b92505060206101ac85828601610164565b9150509250929050565b5f82825260208201905092915050565b7f56616c696461746f7220616464726573732063616e6e6f74206265207a65726f5f82015250565b5f6101fa6020836101b6565b9150610205826101c6565b602082019050919050565b5f6020820190508181035f830152610227816101ee565b9050919050565b610a9f8061023b5f395ff3fe608060405260043610610054575f3560e01c80637975ce2814610058578063a80f99ec14610074578063b4fd72961461009e578063d0b6b6db146100c8578063de74e57b146100f2578063e30e5ae914610130575b5f5ffd5b610072600480360381019061006d91906105e3565b610158565b005b34801561007f575f5ffd5b506100886102db565b6040516100959190610757565b60405180910390f35b3480156100a9575f5ffd5b506100b261039e565b6040516100bf9190610786565b60405180910390f35b3480156100d3575f5ffd5b506100dc6103c3565b6040516100e991906107fa565b60405180910390f35b3480156100fd575f5ffd5b5061011860048036038101906101139190610813565b6103e8565b6040516101279392919061084d565b60405180910390f35b34801561013b575f5ffd5b50610156600480360381019061015191906105e3565b61043b565b005b5f670de0b6b3a76400008261016d91906108af565b90505f5f8481548110610183576101826108f0565b5b905f5260205f209060030201905060015f9054906101000a900473ffffffffffffffffffffffffffffffffffffffff1673ffffffffffffffffffffffffffffffffffffffff1663a9059cbb33846040518363ffffffff1660e01b81526004016101ed92919061091d565b6020604051808303815f875af1158015610209573d5f5f3e3d5ffd5b505050506040513d601f19601f8201168201806040525081019061022d9190610979565b5081816001015f82825461024191906109a4565b925050819055505f670de0b6b3a764000082600201548461026291906108af565b61026c9190610a04565b9050815f015f9054906101000a900473ffffffffffffffffffffffffffffffffffffffff1673ffffffffffffffffffffffffffffffffffffffff166108fc8290811502906040515f60405180830381858888f193505050501580156102d3573d5f5f3e3d5ffd5b505050505050565b60605f805480602002602001604051908101604052809291908181526020015f905b82821015610395578382905f5260205f2090600302016040518060600160405290815f82015f9054906101000a900473ffffffffffffffffffffffffffffffffffffffff1673ffffffffffffffffffffffffffffffffffffffff1673ffffffffffffffffffffffffffffffffffffffff16815260200160018201548152602001600282015481525050815260200190600101906102fd565b50505050905090565b60025f9054906101000a900473ffffffffffffffffffffffffffffffffffffffff1681565b60015f9054906101000a900473ffffffffffffffffffffffffffffffffffffffff1681565b5f81815481106103f6575f80fd5b905f5260205f2090600302015f91509050805f015f9054906101000a900473ffffffffffffffffffffffffffffffffffffffff16908060010154908060020154905083565b5f670de0b6b3a76400008361045091906108af565b90505f670de0b6b3a76400008361046791906108af565b905060015f9054906101000a900473ffffffffffffffffffffffffffffffffffffffff1673ffffffffffffffffffffffffffffffffffffffff166323b872dd3330856040518463ffffffff1660e01b81526004016104c793929190610a34565b5f604051808303815f87803b1580156104de575f5ffd5b505af11580156104f0573d5f5f3e3d5ffd5b505050505f60405180606001604052803373ffffffffffffffffffffffffffffffffffffffff16815260200184815260200183815250908060018154018082558091505060019003905f5260205f2090600302015f909190919091505f820151815f015f6101000a81548173ffffffffffffffffffffffffffffffffffffffff021916908373ffffffffffffffffffffffffffffffffffffffff1602179055506020820151816001015560408201518160020155505050505050565b5f5ffd5b5f819050919050565b6105c2816105b0565b81146105cc575f5ffd5b50565b5f813590506105dd816105b9565b92915050565b5f5f604083850312156105f9576105f86105ac565b5b5f610606858286016105cf565b9250506020610617858286016105cf565b9150509250929050565b5f81519050919050565b5f82825260208201905092915050565b5f819050602082019050919050565b5f73ffffffffffffffffffffffffffffffffffffffff82169050919050565b5f6106738261064a565b9050919050565b61068381610669565b82525050565b610692816105b0565b82525050565b606082015f8201516106ac5f85018261067a565b5060208201516106bf6020850182610689565b5060408201516106d26040850182610689565b50505050565b5f6106e38383610698565b60608301905092915050565b5f602082019050919050565b5f61070582610621565b61070f818561062b565b935061071a8361063b565b805f5b8381101561074a57815161073188826106d8565b975061073c836106ef565b92505060018101905061071d565b5085935050505092915050565b5f6020820190508181035f83015261076f81846106fb565b905092915050565b61078081610669565b82525050565b5f6020820190506107995f830184610777565b92915050565b5f819050919050565b5f6107c26107bd6107b88461064a565b61079f565b61064a565b9050919050565b5f6107d3826107a8565b9050919050565b5f6107e4826107c9565b9050919050565b6107f4816107da565b82525050565b5f60208201905061080d5f8301846107eb565b92915050565b5f60208284031215610828576108276105ac565b5b5f610835848285016105cf565b91505092915050565b610847816105b0565b82525050565b5f6060820190506108605f830186610777565b61086d602083018561083e565b61087a604083018461083e565b949350505050565b7f4e487b71000000000000000000000000000000000000000000000000000000005f52601160045260245ffd5b5f6108b9826105b0565b91506108c4836105b0565b92508282026108d2816105b0565b915082820484148315176108e9576108e8610882565b5b5092915050565b7f4e487b71000000000000000000000000000000000000000000000000000000005f52603260045260245ffd5b5f6040820190506109305f830185610777565b61093d602083018461083e565b9392505050565b5f8115159050919050565b61095881610944565b8114610962575f5ffd5b50565b5f815190506109738161094f565b92915050565b5f6020828403121561098e5761098d6105ac565b5b5f61099b84828501610965565b91505092915050565b5f6109ae826105b0565b91506109b9836105b0565b92508282039050818111156109d1576109d0610882565b5b92915050565b7f4e487b71000000000000000000000000000000000000000000000000000000005f52601260045260245ffd5b5f610a0e826105b0565b9150610a19836105b0565b925082610a2957610a286109d7565b5b828204905092915050565b5f606082019050610a475f830186610777565b610a546020830185610777565b610a61604083018461083e565b94935050505056fea2646970667358221220cf2a4c65d9c9751d0dd03b654968fffd714f18552de46d2248bf5c34c66cbd8764736f6c63430008220033",
  "immutableReferences": {},
  "source": "// SPDX-License-Identifier: MIT\npragma solidity ^0.8.19;\n\ninterface IMintContract {\n    function transfer(address to, uint256 amount) external returns (bool);\n    function transferFrom(address from, address to, uint256 amount) external;\n    function burnFrom(address from, uint256 amount) external;\n}\n\ncontract AMM{\n    struct Listing{\n        address seller;\n        uint256 amount;\n        uint256 pricePerCCT;\n    }\n\n    Listing[] public listings ;\n    IMintContract public mintContract;\n    uint256 constant CCT_DECIMALS = 10**18; // Scaling factor\n\n    address public consumer;\n\n    constructor(address _consumer,address _mintContract) payable{\n        require(_consumer != address(0), \"Validator address cannot be zero\");\n        consumer = _consumer;\n        mintContract = IMintContract(_mintContract);\n    }\n\n    function listTokens(uint256 _amount, uint256 _price) external {\n        uint256 scaledAmount = _amount * CCT_DECIMALS; // Convert to full units\n        uint256 scaledPrice = _price * 1 ether;\n\n        mintContract.transferFrom(msg.sender, address(this), scaledAmount);\n\n        // Check if seller already has a listing\n        // bool updated = false;\n        // for (uint256 i = 0; i < listings.length; i++) {\n        //     if (listings[i].seller == msg.sender) {\n        //         listings[i].amount += scaledAmount;\n        //         listings[i].pricePerCCT = scaledPrice;\n        //         updated = true;\n        //         break;\n        //     }\n        // }\n\n        //if(!updated){\n            listings.push(Listing({\n                seller: msg.sender,\n                amount: scaledAmount,\n                pricePerCCT: scaledPrice\n            }));\n        //}\n    }\n\n    function fetchListings() external view returns (Listing[] memory){\n        return listings;\n    }\n\n    function buyTokens(uint256 index, uint256 _amount) external payable{\n        uint256 scaledBuyAmount=_amount*CCT_DECIMALS;\n\n        //find the listing //issue part\n        // uint256 listingIdx=type(uint256).max;\n        // for(uint256 i=0;i<listings.length;i++){\n        //     if(listings[i].seller== _gen){\n        //         listingIdx=i;\n        //         break;\n        //     }\n        // }\n\n        //check if the seller has enough cct\n        Listing storage listing = listings[index];\n        //require(listing.amount>=scaledBuyAmount,\"Seller does not have enough CCT\");\n        \n        //transfer cct\n        mintContract.transfer(msg.sender,scaledBuyAmount);\n        listing.amount-=scaledBuyAmount;\n\n        //send eth\n        uint256 totalETH=(scaledBuyAmount * listing.pricePerCCT)/CCT_DECIMALS;\n        payable(listing.seller).transfer(totalETH);\n    }\n}",
  "sourcePath": "/home/tund/repos/carbon-credit-ecosystem/contracts/AMM.sol",
  "compiler": {
    "name": "solc",
    "version": "0.8.34+commit.80d5c536.Emscripten.clang"
  },
  "schemaVersion": "3.4.16",
  "updatedAt": "2026-02-25T09:22:15.977Z",
  "networkType": "ethereum",
  "devdoc": {
    "kind": "dev",
    "methods": {},
    "version": 1
  },
  "userdoc": {
    "kind": "user",
    "methods": {},
    "version": 1
  }
}