{
  "contractName": "MintNFT",
  "abi": [
    {
      "anonymous": false,
      "inputs": [
        {
          "indexed": true,
          "internalType": "address",
          "name": "owner",
          "type": "address"
        },
        {
          "indexed": true,
          "internalType": "address",
          "name": "approved",
          "type": "address"
        },
        {
          "indexed": true,
          "internalType": "uint256",
          "name": "tokenId",
          "type": "uint256"
        }
      ],
      "name": "Approval",
      "type": "event"
    },
    {
      "anonymous": false,
      "inputs": [
        {
          "indexed": true,
          "internalType": "address",
          "name": "owner",
          "type": "address"
        },
        {
          "indexed": true,
          "internalType": "address",
          "name": "operator",
          "type": "address"
        },
        {
          "indexed": false,
          "internalType": "bool",
          "name": "approved",
          "type": "bool"
        }
      ],
      "name": "ApprovalForAll",
      "type": "event"
    },
    {
      "anonymous": false,
      "inputs": [
        {
          "indexed": true,
          "internalType": "address",
          "name": "from",
          "type": "address"
        },
        {
          "indexed": true,
          "internalType": "address",
          "name": "to",
          "type": "address"
        },
        {
          "indexed": true,
          "internalType": "uint256",
          "name": "tokenId",
          "type": "uint256"
        }
      ],
      "name": "Transfer",
      "type": "event"
    },
    {
      "inputs": [
        {
          "internalType": "uint256",
          "name": "",
          "type": "uint256"
        }
      ],
      "name": "certificateDetails",
      "outputs": [
        {
          "internalType": "uint256",
          "name": "burnAmount",
          "type": "uint256"
        },
        {
          "internalType": "uint256",
          "name": "timestamp",
          "type": "uint256"
        }
      ],
      "stateMutability": "view",
      "type": "function",
      "constant": true
    },
    {
      "inputs": [
        {
          "internalType": "address",
          "name": "",
          "type": "address"
        }
      ],
      "name": "latestTokenId",
      "outputs": [
        {
          "internalType": "uint256",
          "name": "",
          "type": "uint256"
        }
      ],
      "stateMutability": "view",
      "type": "function",
      "constant": true
    },
    {
      "inputs": [],
      "name": "name",
      "outputs": [
        {
          "internalType": "string",
          "name": "",
          "type": "string"
        }
      ],
      "stateMutability": "view",
      "type": "function",
      "constant": true
    },
    {
      "inputs": [],
      "name": "nextTokenId",
      "outputs": [
        {
          "internalType": "uint256",
          "name": "",
          "type": "uint256"
        }
      ],
      "stateMutability": "view",
      "type": "function",
      "constant": true
    },
    {
      "inputs": [],
      "name": "symbol",
      "outputs": [
        {
          "internalType": "string",
          "name": "",
          "type": "string"
        }
      ],
      "stateMutability": "view",
      "type": "function",
      "constant": true
    },
    {
      "inputs": [
        {
          "internalType": "address",
          "name": "_consumer",
          "type": "address"
        },
        {
          "internalType": "uint256",
          "name": "_amount",
          "type": "uint256"
        }
      ],
      "name": "mintCRC",
      "outputs": [],
      "stateMutability": "nonpayable",
      "type": "function"
    },
    {
      "inputs": [
        {
          "internalType": "uint256",
          "name": "_tokenId",
          "type": "uint256"
        }
      ],
      "name": "getCRCDetails",
      "outputs": [
        {
          "internalType": "address",
          "name": "owner",
          "type": "address"
        },
        {
          "internalType": "uint256",
          "name": "amount",
          "type": "uint256"
        },
        {
          "internalType": "uint256",
          "name": "timestamp",
          "type": "uint256"
        }
      ],
      "stateMutability": "view",
      "type": "function",
      "constant": true
    },
    {
      "inputs": [
        {
          "internalType": "address",
          "name": "_owner",
          "type": "address"
        }
      ],
      "name": "getCRCByAddress",
      "outputs": [
        {
          "internalType": "address",
          "name": "owner",
          "type": "address"
        },
        {
          "internalType": "uint256",
          "name": "amount",
          "type": "uint256"
        },
        {
          "internalType": "uint256",
          "name": "timestamp",
          "type": "uint256"
        }
      ],
      "stateMutability": "view",
      "type": "function",
      "constant": true
    },
    {
      "inputs": [
        {
          "internalType": "address",
          "name": "owner",
          "type": "address"
        }
      ],
      "name": "balanceOf",
      "outputs": [
        {
          "internalType": "uint256",
          "name": "",
          "type": "uint256"
        }
      ],
      "stateMutability": "view",
      "type": "function",
      "constant": true
    },
    {
      "inputs": [
        {
          "internalType": "uint256",
          "name": "tokenId",
          "type": "uint256"
        }
      ],
      "name": "ownerOf",
      "outputs": [
        {
          "internalType": "address",
          "name": "",
          "type": "address"
        }
      ],
      "stateMutability": "view",
      "type": "function",
      "constant": true
    },
    {
      "inputs": [
        {
          "internalType": "address",
          "name": "to",
          "type": "address"
        },
        {
          "internalType": "uint256",
          "name": "tokenId",
          "type": "uint256"
        }
      ],
      "name": "approve",
      "outputs": [],
      "stateMutability": "nonpayable",
      "type": "function"
    },
    {
      "inputs": [
        {
          "internalType": "uint256",
          "name": "tokenId",
          "type": "uint256"
        }
      ],
      "name": "getApproved",
      "outputs": [
        {
          "internalType": "address",
          "name": "",
          "type": "address"
        }
      ],
      "stateMutability": "view",
      "type": "function",
      "constant": true
    },
    {
      "inputs": [
        {
          "internalType": "address",
          "name": "operator",
          "type": "address"
        },
        {
          "internalType": "bool",
          "name": "approved",
          "type": "bool"
        }
      ],
      "name": "setApprovalForAll",
      "outputs": [],
      "stateMutability": "nonpayable",
      "type": "function"
    },
    {
      "inputs": [
        {
          "internalType": "address",
          "name": "owner",
          "type": "address"
        },
        {
          "internalType": "address",
          "name": "operator",
          "type": "address"
        }
      ],
      "name": "isApprovedForAll",
      "outputs": [
        {
          "internalType": "bool",
          "name": "",
          "type": "bool"
        }
      ],
      "stateMutability": "view",
      "type": "function",
      "constant": true
    },
    {
      "inputs": [
        {
          "internalType": "address",
          "name": "from",
          "type": "address"
        },
        {
          "internalType": "address",
          "name": "to",
          "type": "address"
        },
        {
          "internalType": "uint256",
          "name": "tokenId",
          "type": "uint256"
        }
      ],
      "name": "transferFrom",
      "outputs": [],
      "stateMutability": "nonpayable",
      "type": "function"
    }
  ],
  "bytecode": "0x60806040526040518060400160405280601a81526020017f436172626f6e2052656d6f76616c2043657274696669636174650000000000008152505f908161004791906102f1565b506040518060400160405280600381526020017f43524300000000000000000000000000000000000000000000000000000000008152506001908161008c91906102f1565b50600160025534801561009d575f5ffd5b506103c0565b5f81519050919050565b7f4e487b71000000000000000000000000000000000000000000000000000000005f52604160045260245ffd5b7f4e487b71000000000000000000000000000000000000000000000000000000005f52602260045260245ffd5b5f600282049050600182168061011e57607f821691505b602082108103610131576101306100da565b5b50919050565b5f819050815f5260205f209050919050565b5f6020601f8301049050919050565b5f82821b905092915050565b5f600883026101937fffffffffffffffffffffffffffffffffffffffffffffffffffffffffffffffff82610158565b61019d8683610158565b95508019841693508086168417925050509392505050565b5f819050919050565b5f819050919050565b5f6101e16101dc6101d7846101b5565b6101be565b6101b5565b9050919050565b5f819050919050565b6101fa836101c7565b61020e610206826101e8565b848454610164565b825550505050565b5f5f905090565b610225610216565b6102308184846101f1565b505050565b5f5b828110156102565761024b5f82840161021d565b600181019050610237565b505050565b601f8211156102a957828211156102a85761027581610137565b61027e83610149565b61028785610149565b6020861015610294575f90505b8083016102a382840382610235565b505050505b5b505050565b5f82821c905092915050565b5f6102c95f19846008026102ae565b1980831691505092915050565b5f6102e183836102ba565b9150826002028217905092915050565b6102fa826100a3565b67ffffffffffffffff811115610313576103126100ad565b5b61031d8254610107565b61032882828561025b565b5f60209050601f831160018114610359575f8415610347578287015190505b61035185826102d6565b8655506103b8565b601f19841661036786610137565b5f5b8281101561038e57848901518255600182019150602085019450602081019050610369565b868310156103ab57848901516103a7601f8916826102ba565b8355505b6001600288020188555050505b505050505050565b611b6b806103cd5f395ff3fe608060405234801561000f575f5ffd5b50600436106100f3575f3560e01c806370a0823111610095578063a22cb46511610064578063a22cb46514610296578063ba98ac9b146102b2578063d683c06a146102e4578063e985e9c514610316576100f3565b806370a082311461020e57806375794a3c1461023e5780637f26b7e01461025c57806395d89b4114610278576100f3565b806323b872dd116100d157806323b872dd1461016157806344128c871461017d5780636352211e146101ae57806366c2e75b146101de576100f3565b806306fdde03146100f7578063081812fc14610115578063095ea7b314610145575b5f5ffd5b6100ff610346565b60405161010c91906112f5565b60405180910390f35b61012f600480360381019061012a919061134c565b6103d1565b60405161013c91906113b6565b60405180910390f35b61015f600480360381019061015a91906113f9565b6104a8565b005b61017b60048036038101906101769190611437565b6106cb565b005b6101976004803603810190610192919061134c565b610a9e565b6040516101a5929190611496565b60405180910390f35b6101c860048036038101906101c3919061134c565b610abe565b6040516101d591906113b6565b60405180910390f35b6101f860048036038101906101f391906114bd565b610b6a565b60405161020591906114e8565b60405180910390f35b610228600480360381019061022391906114bd565b610b7f565b60405161023591906114e8565b60405180910390f35b610246610c33565b60405161025391906114e8565b60405180910390f35b610276600480360381019061027191906113f9565b610c39565b005b610280610e46565b60405161028d91906112f5565b60405180910390f35b6102b060048036038101906102ab9190611536565b610ed2565b005b6102cc60048036038101906102c7919061134c565b611038565b6040516102db93929190611574565b60405180910390f35b6102fe60048036038101906102f991906114bd565b611126565b60405161030d93929190611574565b60405180910390f35b610330600480360381019061032b91906115a9565b6111f7565b60405161033d91906115f6565b60405180910390f35b5f80546103529061163c565b80601f016020809104026020016040519081016040528092919081815260200182805461037e9061163c565b80156103c95780601f106103a0576101008083540402835291602001916103c9565b820191905f5260205f20905b8154815290600101906020018083116103ac57829003601f168201915b505050505081565b5f5f73ffffffffffffffffffffffffffffffffffffffff1660035f8481526020019081526020015f205f9054906101000a900473ffffffffffffffffffffffffffffffffffffffff1673ffffffffffffffffffffffffffffffffffffffff1603610470576040517f08c379a0000000000000000000000000000000000000000000000000000000008152600401610467906116b6565b60405180910390fd5b60055f8381526020019081526020015f205f9054906101000a900473ffffffffffffffffffffffffffffffffffffffff169050919050565b5f6104b282610abe565b90508073ffffffffffffffffffffffffffffffffffffffff168373ffffffffffffffffffffffffffffffffffffffff1603610522576040517f08c379a00000000000000000000000000000000000000000000000000000000081526004016105199061171e565b60405180910390fd5b8073ffffffffffffffffffffffffffffffffffffffff163373ffffffffffffffffffffffffffffffffffffffff1614806105dd575060065f8273ffffffffffffffffffffffffffffffffffffffff1673ffffffffffffffffffffffffffffffffffffffff1681526020019081526020015f205f3373ffffffffffffffffffffffffffffffffffffffff1673ffffffffffffffffffffffffffffffffffffffff1681526020019081526020015f205f9054906101000a900460ff165b61061c576040517f08c379a0000000000000000000000000000000000000000000000000000000008152600401610613906117ac565b60405180910390fd5b8260055f8481526020019081526020015f205f6101000a81548173ffffffffffffffffffffffffffffffffffffffff021916908373ffffffffffffffffffffffffffffffffffffffff160217905550818373ffffffffffffffffffffffffffffffffffffffff168273ffffffffffffffffffffffffffffffffffffffff167f8c5be1e5ebec7d5bd14f71427d1e84f3dd0314c0f7b2291e5b200ac8c7c3b92560405160405180910390a4505050565b5f73ffffffffffffffffffffffffffffffffffffffff168273ffffffffffffffffffffffffffffffffffffffff1603610739576040517f08c379a000000000000000000000000000000000000000000000000000000000815260040161073090611814565b60405180910390fd5b5f61074382610abe565b90508373ffffffffffffffffffffffffffffffffffffffff168173ffffffffffffffffffffffffffffffffffffffff16146107b3576040517f08c379a00000000000000000000000000000000000000000000000000000000081526004016107aa9061187c565b60405180910390fd5b8073ffffffffffffffffffffffffffffffffffffffff163373ffffffffffffffffffffffffffffffffffffffff16148061084857503373ffffffffffffffffffffffffffffffffffffffff1660055f8481526020019081526020015f205f9054906101000a900473ffffffffffffffffffffffffffffffffffffffff1673ffffffffffffffffffffffffffffffffffffffff16145b806108d4575060065f8273ffffffffffffffffffffffffffffffffffffffff1673ffffffffffffffffffffffffffffffffffffffff1681526020019081526020015f205f3373ffffffffffffffffffffffffffffffffffffffff1673ffffffffffffffffffffffffffffffffffffffff1681526020019081526020015f205f9054906101000a900460ff165b610913576040517f08c379a000000000000000000000000000000000000000000000000000000000815260040161090a906118e4565b60405180910390fd5b60055f8381526020019081526020015f205f6101000a81549073ffffffffffffffffffffffffffffffffffffffff0219169055600160045f8673ffffffffffffffffffffffffffffffffffffffff1673ffffffffffffffffffffffffffffffffffffffff1681526020019081526020015f205f828254610993919061192f565b92505081905550600160045f8573ffffffffffffffffffffffffffffffffffffffff1673ffffffffffffffffffffffffffffffffffffffff1681526020019081526020015f205f8282546109e79190611962565b925050819055508260035f8481526020019081526020015f205f6101000a81548173ffffffffffffffffffffffffffffffffffffffff021916908373ffffffffffffffffffffffffffffffffffffffff160217905550818373ffffffffffffffffffffffffffffffffffffffff168573ffffffffffffffffffffffffffffffffffffffff167fddf252ad1be2c89b69c2b068fc378daa952ba7f163c4a11628f55a4df523b3ef60405160405180910390a450505050565b6008602052805f5260405f205f91509050805f0154908060010154905082565b5f5f60035f8481526020019081526020015f205f9054906101000a900473ffffffffffffffffffffffffffffffffffffffff1690505f73ffffffffffffffffffffffffffffffffffffffff168173ffffffffffffffffffffffffffffffffffffffff1603610b61576040517f08c379a0000000000000000000000000000000000000000000000000000000008152600401610b58906116b6565b60405180910390fd5b80915050919050565b6007602052805f5260405f205f915090505481565b5f5f73ffffffffffffffffffffffffffffffffffffffff168273ffffffffffffffffffffffffffffffffffffffff1603610bee576040517f08c379a0000000000000000000000000000000000000000000000000000000008152600401610be5906119df565b60405180910390fd5b60045f8373ffffffffffffffffffffffffffffffffffffffff1673ffffffffffffffffffffffffffffffffffffffff1681526020019081526020015f20549050919050565b60025481565b5f73ffffffffffffffffffffffffffffffffffffffff168273ffffffffffffffffffffffffffffffffffffffff1603610ca7576040517f08c379a0000000000000000000000000000000000000000000000000000000008152600401610c9e90611a47565b60405180910390fd5b5f6002549050600160025f828254610cbf9190611962565b92505081905550600160045f8573ffffffffffffffffffffffffffffffffffffffff1673ffffffffffffffffffffffffffffffffffffffff1681526020019081526020015f205f828254610d139190611962565b925050819055508260035f8381526020019081526020015f205f6101000a81548173ffffffffffffffffffffffffffffffffffffffff021916908373ffffffffffffffffffffffffffffffffffffffff16021790555060405180604001604052808381526020014281525060085f8381526020019081526020015f205f820151815f0155602082015181600101559050508060075f8573ffffffffffffffffffffffffffffffffffffffff1673ffffffffffffffffffffffffffffffffffffffff1681526020019081526020015f2081905550808373ffffffffffffffffffffffffffffffffffffffff165f73ffffffffffffffffffffffffffffffffffffffff167fddf252ad1be2c89b69c2b068fc378daa952ba7f163c4a11628f55a4df523b3ef60405160405180910390a4505050565b60018054610e539061163c565b80601f0160208091040260200160405190810160405280929190818152602001828054610e7f9061163c565b8015610eca5780601f10610ea157610100808354040283529160200191610eca565b820191905f5260205f20905b815481529060010190602001808311610ead57829003601f168201915b505050505081565b8173ffffffffffffffffffffffffffffffffffffffff163373ffffffffffffffffffffffffffffffffffffffff1603610f40576040517f08c379a0000000000000000000000000000000000000000000000000000000008152600401610f3790611aaf565b60405180910390fd5b8060065f3373ffffffffffffffffffffffffffffffffffffffff1673ffffffffffffffffffffffffffffffffffffffff1681526020019081526020015f205f8473ffffffffffffffffffffffffffffffffffffffff1673ffffffffffffffffffffffffffffffffffffffff1681526020019081526020015f205f6101000a81548160ff0219169083151502179055508173ffffffffffffffffffffffffffffffffffffffff163373ffffffffffffffffffffffffffffffffffffffff167f17307eab39ab6107e8899845ad3d59bd9653f200f220920489ca2b5937696c318360405161102c91906115f6565b60405180910390a35050565b5f5f5f60035f8581526020019081526020015f205f9054906101000a900473ffffffffffffffffffffffffffffffffffffffff1692505f73ffffffffffffffffffffffffffffffffffffffff168373ffffffffffffffffffffffffffffffffffffffff16036110dc576040517f08c379a00000000000000000000000000000000000000000000000000000000081526004016110d3906116b6565b60405180910390fd5b5f60085f8681526020019081526020015f206040518060400160405290815f8201548152602001600182015481525050905083815f01518260200151935093509350509193909250565b5f5f5f5f60075f8673ffffffffffffffffffffffffffffffffffffffff1673ffffffffffffffffffffffffffffffffffffffff1681526020019081526020015f205490505f81036111ac576040517f08c379a00000000000000000000000000000000000000000000000000000000081526004016111a390611b17565b60405180910390fd5b5f60085f8381526020019081526020015f206040518060400160405290815f8201548152602001600182015481525050905085815f0151826020015194509450945050509193909250565b5f60065f8473ffffffffffffffffffffffffffffffffffffffff1673ffffffffffffffffffffffffffffffffffffffff1681526020019081526020015f205f8373ffffffffffffffffffffffffffffffffffffffff1673ffffffffffffffffffffffffffffffffffffffff1681526020019081526020015f205f9054906101000a900460ff16905092915050565b5f81519050919050565b5f82825260208201905092915050565b8281835e5f83830152505050565b5f601f19601f8301169050919050565b5f6112c782611285565b6112d1818561128f565b93506112e181856020860161129f565b6112ea816112ad565b840191505092915050565b5f6020820190508181035f83015261130d81846112bd565b905092915050565b5f5ffd5b5f819050919050565b61132b81611319565b8114611335575f5ffd5b50565b5f8135905061134681611322565b92915050565b5f6020828403121561136157611360611315565b5b5f61136e84828501611338565b91505092915050565b5f73ffffffffffffffffffffffffffffffffffffffff82169050919050565b5f6113a082611377565b9050919050565b6113b081611396565b82525050565b5f6020820190506113c95f8301846113a7565b92915050565b6113d881611396565b81146113e2575f5ffd5b50565b5f813590506113f3816113cf565b92915050565b5f5f6040838503121561140f5761140e611315565b5b5f61141c858286016113e5565b925050602061142d85828601611338565b9150509250929050565b5f5f5f6060848603121561144e5761144d611315565b5b5f61145b868287016113e5565b935050602061146c868287016113e5565b925050604061147d86828701611338565b9150509250925092565b61149081611319565b82525050565b5f6040820190506114a95f830185611487565b6114b66020830184611487565b9392505050565b5f602082840312156114d2576114d1611315565b5b5f6114df848285016113e5565b91505092915050565b5f6020820190506114fb5f830184611487565b92915050565b5f8115159050919050565b61151581611501565b811461151f575f5ffd5b50565b5f813590506115308161150c565b92915050565b5f5f6040838503121561154c5761154b611315565b5b5f611559858286016113e5565b925050602061156a85828601611522565b9150509250929050565b5f6060820190506115875f8301866113a7565b6115946020830185611487565b6115a16040830184611487565b949350505050565b5f5f604083850312156115bf576115be611315565b5b5f6115cc858286016113e5565b92505060206115dd858286016113e5565b9150509250929050565b6115f081611501565b82525050565b5f6020820190506116095f8301846115e7565b92915050565b7f4e487b71000000000000000000000000000000000000000000000000000000005f52602260045260245ffd5b5f600282049050600182168061165357607f821691505b6020821081036116665761166561160f565b5b50919050565b7f496e76616c696420546f6b656e204944000000000000000000000000000000005f82015250565b5f6116a060108361128f565b91506116ab8261166c565b602082019050919050565b5f6020820190508181035f8301526116cd81611694565b9050919050565b7f417070726f76616c20746f2063757272656e74206f776e6572000000000000005f82015250565b5f61170860198361128f565b9150611713826116d4565b602082019050919050565b5f6020820190508181035f830152611735816116fc565b9050919050565b7f4e6f7420746f6b656e206f776e6572206f7220617070726f76656420666f72205f8201527f616c6c0000000000000000000000000000000000000000000000000000000000602082015250565b5f61179660238361128f565b91506117a18261173c565b604082019050919050565b5f6020820190508181035f8301526117c38161178a565b9050919050565b7f5472616e7366657220746f207a65726f206164647265737300000000000000005f82015250565b5f6117fe60188361128f565b9150611809826117ca565b602082019050919050565b5f6020820190508181035f83015261182b816117f2565b9050919050565b7f5472616e736665722066726f6d20696e636f7272656374206f776e65720000005f82015250565b5f611866601d8361128f565b915061187182611832565b602082019050919050565b5f6020820190508181035f8301526118938161185a565b9050919050565b7f43616c6c6572206973206e6f74206f776e6572206e6f7220617070726f7665645f82015250565b5f6118ce60208361128f565b91506118d98261189a565b602082019050919050565b5f6020820190508181035f8301526118fb816118c2565b9050919050565b7f4e487b71000000000000000000000000000000000000000000000000000000005f52601160045260245ffd5b5f61193982611319565b915061194483611319565b925082820390508181111561195c5761195b611902565b5b92915050565b5f61196c82611319565b915061197783611319565b925082820190508082111561198f5761198e611902565b5b92915050565b7f517565727920666f72207a65726f2061646472657373000000000000000000005f82015250565b5f6119c960168361128f565b91506119d482611995565b602082019050919050565b5f6020820190508181035f8301526119f6816119bd565b9050919050565b7f4d696e7420746f207a65726f20616464726573730000000000000000000000005f82015250565b5f611a3160148361128f565b9150611a3c826119fd565b602082019050919050565b5f6020820190508181035f830152611a5e81611a25565b9050919050565b7f417070726f766520746f2063616c6c65720000000000000000000000000000005f82015250565b5f611a9960118361128f565b9150611aa482611a65565b602082019050919050565b5f6020820190508181035f830152611ac681611a8d565b9050919050565b7f4e6f2043524320666f756e6420666f72207468697320616464726573730000005f82015250565b5f611b01601d8361128f565b9150611b0c82611acd565b602082019050919050565b5f6020820190508181035f830152611b2e81611af5565b905091905056fea2646970667358221220c817e6b8b4263271f5b16649ac312816684c35ac27c78e3944a03f197d8e8f1b64736f6c63430008220033",
  "immutableReferences": {},
  "source": "// SPDX-License-Identifier: MIT\npragma solidity ^0.8.19;\n\ncontract MintNFT {\n    string public name = \"Carbon Removal Certificate\";\n    string public symbol = \"CRC\";\n    \n    uint256 public nextTokenId = 1;\n\n    mapping(uint256 => address) private _owners;\n    mapping(address => uint256) private _balances;\n    mapping(uint256 => address) private _tokenApprovals;\n    mapping(address => mapping(address => bool)) private _operatorApprovals;\n\n    // THÊM: Biến này dùng để nhớ Token ID mới nhất của một địa chỉ ví\n    mapping(address => uint256) public latestTokenId;\n\n    struct CRCInfo {\n        uint256 burnAmount;\n        uint256 timestamp;\n    }\n    mapping(uint256 => CRCInfo) public certificateDetails;\n\n    event Transfer(address indexed from, address indexed to, uint256 indexed tokenId);\n    event Approval(address indexed owner, address indexed approved, uint256 indexed tokenId);\n    event ApprovalForAll(address indexed owner, address indexed operator, bool approved);\n\n    function mintCRC(address _consumer, uint256 _amount) external {\n        require(_consumer != address(0), \"Mint to zero address\");\n        \n        uint256 tokenId = nextTokenId;\n        nextTokenId += 1;\n\n        _balances[_consumer] += 1;\n        _owners[tokenId] = _consumer;\n\n        certificateDetails[tokenId] = CRCInfo({\n            burnAmount: _amount,\n            timestamp: block.timestamp\n        });\n\n        // CẬP NHẬT: Lưu lại Token ID mới nhất của user\n        latestTokenId[_consumer] = tokenId;\n\n        emit Transfer(address(0), _consumer, tokenId);\n    }\n\n    function getCRCDetails(uint256 _tokenId) external view returns (address owner, uint256 amount, uint256 timestamp) {\n        owner = _owners[_tokenId];\n        require(owner != address(0), \"Invalid Token ID\");\n        CRCInfo memory info = certificateDetails[_tokenId];\n        return (owner, info.burnAmount, info.timestamp);\n    }\n\n    // THÊM HÀM MỚI: Dành cho Frontend gọi\n    function getCRCByAddress(address _owner) external view returns (address owner, uint256 amount, uint256 timestamp) {\n        uint256 tokenId = latestTokenId[_owner];\n        require(tokenId != 0, \"No CRC found for this address\");\n        CRCInfo memory info = certificateDetails[tokenId];\n        return (_owner, info.burnAmount, info.timestamp);\n    }\n\n    function balanceOf(address owner) external view returns (uint256) {\n        require(owner != address(0), \"Query for zero address\");\n        return _balances[owner];\n    }\n\n    function ownerOf(uint256 tokenId) public view returns (address) {\n        address owner = _owners[tokenId];\n        require(owner != address(0), \"Invalid Token ID\");\n        return owner;\n    }\n\n    function approve(address to, uint256 tokenId) external {\n        address owner = ownerOf(tokenId);\n        require(to != owner, \"Approval to current owner\");\n        require(msg.sender == owner || _operatorApprovals[owner][msg.sender], \"Not token owner or approved for all\");\n\n        _tokenApprovals[tokenId] = to;\n        emit Approval(owner, to, tokenId);\n    }\n\n    function getApproved(uint256 tokenId) external view returns (address) {\n        require(_owners[tokenId] != address(0), \"Invalid Token ID\");\n        return _tokenApprovals[tokenId];\n    }\n\n    function setApprovalForAll(address operator, bool approved) external {\n        require(msg.sender != operator, \"Approve to caller\");\n        _operatorApprovals[msg.sender][operator] = approved;\n        emit ApprovalForAll(msg.sender, operator, approved);\n    }\n\n    function isApprovedForAll(address owner, address operator) external view returns (bool) {\n        return _operatorApprovals[owner][operator];\n    }\n\n    function transferFrom(address from, address to, uint256 tokenId) external {\n        require(to != address(0), \"Transfer to zero address\");\n        address owner = ownerOf(tokenId);\n        require(owner == from, \"Transfer from incorrect owner\");\n        require(msg.sender == owner || _tokenApprovals[tokenId] == msg.sender || _operatorApprovals[owner][msg.sender], \"Caller is not owner nor approved\");\n\n        delete _tokenApprovals[tokenId];\n        _balances[from] -= 1;\n        _balances[to] += 1;\n        _owners[tokenId] = to;\n\n        emit Transfer(from, to, tokenId);\n    }\n}\n",
  "sourcePath": "/home/tund/repos/carbon-credit-ecosystem/contracts/MintNFT.sol",
  "compiler": {
    "name": "solc",
    "version": "0.8.34+commit.80d5c536.Emscripten.clang"
  },
  "schemaVersion": "3.4.16",
  "updatedAt": "2026-02-25T09:22:15.981Z",
  "networkType": "ethereum",
  "devdoc": {
    "kind": "dev",
    "methods": {},
    "version": 1
  },
  "userdoc": {
    "kind": "user",
    "methods": {},
    "version": 1
  }
}