{
  "contractName": "MintTokens",
  "abi": [
    {
      "anonymous": false,
      "inputs": [
        {
          "indexed": true,
          "internalType": "address",
          "name": "owner",
          "type": "address"
        },
        {
          "indexed": true,
          "internalType": "address",
          "name": "spender",
          "type": "address"
        },
        {
          "indexed": false,
          "internalType": "uint256",
          "name": "value",
          "type": "uint256"
        }
      ],
      "name": "Approval",
      "type": "event"
    },
    {
      "anonymous": false,
      "inputs": [
        {
          "indexed": true,
          "internalType": "address",
          "name": "from",
          "type": "address"
        },
        {
          "indexed": true,
          "internalType": "address",
          "name": "to",
          "type": "address"
        },
        {
          "indexed": false,
          "internalType": "uint256",
          "name": "value",
          "type": "uint256"
        }
      ],
      "name": "Transfer",
      "type": "event"
    },
    {
      "inputs": [
        {
          "internalType": "address",
          "name": "",
          "type": "address"
        },
        {
          "internalType": "address",
          "name": "",
          "type": "address"
        }
      ],
      "name": "allowance",
      "outputs": [
        {
          "internalType": "uint256",
          "name": "",
          "type": "uint256"
        }
      ],
      "stateMutability": "view",
      "type": "function",
      "constant": true
    },
    {
      "inputs": [
        {
          "internalType": "address",
          "name": "",
          "type": "address"
        }
      ],
      "name": "balanceOf",
      "outputs": [
        {
          "internalType": "uint256",
          "name": "",
          "type": "uint256"
        }
      ],
      "stateMutability": "view",
      "type": "function",
      "constant": true
    },
    {
      "inputs": [],
      "name": "decimals",
      "outputs": [
        {
          "internalType": "uint8",
          "name": "",
          "type": "uint8"
        }
      ],
      "stateMutability": "view",
      "type": "function",
      "constant": true
    },
    {
      "inputs": [],
      "name": "name",
      "outputs": [
        {
          "internalType": "string",
          "name": "",
          "type": "string"
        }
      ],
      "stateMutability": "view",
      "type": "function",
      "constant": true
    },
    {
      "inputs": [],
      "name": "symbol",
      "outputs": [
        {
          "internalType": "string",
          "name": "",
          "type": "string"
        }
      ],
      "stateMutability": "view",
      "type": "function",
      "constant": true
    },
    {
      "inputs": [],
      "name": "totalSupply",
      "outputs": [
        {
          "internalType": "uint256",
          "name": "",
          "type": "uint256"
        }
      ],
      "stateMutability": "view",
      "type": "function",
      "constant": true
    },
    {
      "inputs": [
        {
          "internalType": "address",
          "name": "_generator",
          "type": "address"
        },
        {
          "internalType": "uint256",
          "name": "_amount",
          "type": "uint256"
        }
      ],
      "name": "mintTokens",
      "outputs": [],
      "stateMutability": "nonpayable",
      "type": "function"
    },
    {
      "inputs": [
        {
          "internalType": "address",
          "name": "_to",
          "type": "address"
        },
        {
          "internalType": "uint256",
          "name": "_amount",
          "type": "uint256"
        }
      ],
      "name": "transfer",
      "outputs": [
        {
          "internalType": "bool",
          "name": "",
          "type": "bool"
        }
      ],
      "stateMutability": "nonpayable",
      "type": "function"
    },
    {
      "inputs": [
        {
          "internalType": "address",
          "name": "_spender",
          "type": "address"
        },
        {
          "internalType": "uint256",
          "name": "_amount",
          "type": "uint256"
        }
      ],
      "name": "approve",
      "outputs": [
        {
          "internalType": "bool",
          "name": "",
          "type": "bool"
        }
      ],
      "stateMutability": "nonpayable",
      "type": "function"
    },
    {
      "inputs": [
        {
          "internalType": "address",
          "name": "_sender",
          "type": "address"
        },
        {
          "internalType": "address",
          "name": "_receiver",
          "type": "address"
        },
        {
          "internalType": "uint256",
          "name": "_amount",
          "type": "uint256"
        }
      ],
      "name": "transferFrom",
      "outputs": [
        {
          "internalType": "bool",
          "name": "",
          "type": "bool"
        }
      ],
      "stateMutability": "nonpayable",
      "type": "function"
    },
    {
      "inputs": [
        {
          "internalType": "uint256",
          "name": "_amount",
          "type": "uint256"
        }
      ],
      "name": "burn",
      "outputs": [
        {
          "internalType": "bool",
          "name": "",
          "type": "bool"
        }
      ],
      "stateMutability": "nonpayable",
      "type": "function"
    },
    {
      "inputs": [
        {
          "internalType": "address",
          "name": "_from",
          "type": "address"
        },
        {
          "internalType": "uint256",
          "name": "_amount",
          "type": "uint256"
        }
      ],
      "name": "burnFrom",
      "outputs": [
        {
          "internalType": "bool",
          "name": "",
          "type": "bool"
        }
      ],
      "stateMutability": "nonpayable",
      "type": "function"
    }
  ],
  "bytecode": "0x60806040526040518060400160405280601381526020017f436172626f6e2043726564697420546f6b656e000000000000000000000000008152505f90816100479190610307565b506040518060400160405280600381526020017f43435400000000000000000000000000000000000000000000000000000000008152506001908161008c9190610307565b50601260025f6101000a81548160ff021916908360ff1602179055503480156100b3575f5ffd5b506103d6565b5f81519050919050565b7f4e487b71000000000000000000000000000000000000000000000000000000005f52604160045260245ffd5b7f4e487b71000000000000000000000000000000000000000000000000000000005f52602260045260245ffd5b5f600282049050600182168061013457607f821691505b602082108103610147576101466100f0565b5b50919050565b5f819050815f5260205f209050919050565b5f6020601f8301049050919050565b5f82821b905092915050565b5f600883026101a97fffffffffffffffffffffffffffffffffffffffffffffffffffffffffffffffff8261016e565b6101b3868361016e565b95508019841693508086168417925050509392505050565b5f819050919050565b5f819050919050565b5f6101f76101f26101ed846101cb565b6101d4565b6101cb565b9050919050565b5f819050919050565b610210836101dd565b61022461021c826101fe565b84845461017a565b825550505050565b5f5f905090565b61023b61022c565b610246818484610207565b505050565b5f5b8281101561026c576102615f828401610233565b60018101905061024d565b505050565b601f8211156102bf57828211156102be5761028b8161014d565b6102948361015f565b61029d8561015f565b60208610156102aa575f90505b8083016102b98284038261024b565b505050505b5b505050565b5f82821c905092915050565b5f6102df5f19846008026102c4565b1980831691505092915050565b5f6102f783836102d0565b9150826002028217905092915050565b610310826100b9565b67ffffffffffffffff811115610329576103286100c3565b5b610333825461011d565b61033e828285610271565b5f60209050601f83116001811461036f575f841561035d578287015190505b61036785826102ec565b8655506103ce565b601f19841661037d8661014d565b5f5b828110156103a45784890151825560018201915060208501945060208101905061037f565b868310156103c157848901516103bd601f8916826102d0565b8355505b6001600288020188555050505b505050505050565b611363806103e35f395ff3fe608060405234801561000f575f5ffd5b50600436106100b2575f3560e01c806370a082311161006f57806370a08231146101a057806379cc6790146101d057806395d89b4114610200578063a9059cbb1461021e578063dd62ed3e1461024e578063f0dda65c1461027e576100b2565b806306fdde03146100b6578063095ea7b3146100d457806318160ddd1461010457806323b872dd14610122578063313ce5671461015257806342966c6814610170575b5f5ffd5b6100be61029a565b6040516100cb9190610ea3565b60405180910390f35b6100ee60048036038101906100e99190610f54565b610325565b6040516100fb9190610fac565b60405180910390f35b61010c610412565b6040516101199190610fd4565b60405180910390f35b61013c60048036038101906101379190610fed565b610418565b6040516101499190610fac565b60405180910390f35b61015a6106f8565b6040516101679190611058565b60405180910390f35b61018a60048036038101906101859190611071565b61070a565b6040516101979190610fac565b60405180910390f35b6101ba60048036038101906101b5919061109c565b610864565b6040516101c79190610fd4565b60405180910390f35b6101ea60048036038101906101e59190610f54565b610879565b6040516101f79190610fac565b60405180910390f35b610208610b1d565b6040516102159190610ea3565b60405180910390f35b61023860048036038101906102339190610f54565b610ba9565b6040516102459190610fac565b60405180910390f35b610268600480360381019061026391906110c7565b610d3f565b6040516102759190610fd4565b60405180910390f35b61029860048036038101906102939190610f54565b610d5f565b005b5f80546102a690611132565b80601f01602080910402602001604051908101604052809291908181526020018280546102d290611132565b801561031d5780601f106102f45761010080835404028352916020019161031d565b820191905f5260205f20905b81548152906001019060200180831161030057829003601f168201915b505050505081565b5f8160055f3373ffffffffffffffffffffffffffffffffffffffff1673ffffffffffffffffffffffffffffffffffffffff1681526020019081526020015f205f8573ffffffffffffffffffffffffffffffffffffffff1673ffffffffffffffffffffffffffffffffffffffff1681526020019081526020015f20819055508273ffffffffffffffffffffffffffffffffffffffff163373ffffffffffffffffffffffffffffffffffffffff167f8c5be1e5ebec7d5bd14f71427d1e84f3dd0314c0f7b2291e5b200ac8c7c3b925846040516104009190610fd4565b60405180910390a36001905092915050565b60035481565b5f8160045f8673ffffffffffffffffffffffffffffffffffffffff1673ffffffffffffffffffffffffffffffffffffffff1681526020019081526020015f20541015610499576040517f08c379a0000000000000000000000000000000000000000000000000000000008152600401610490906111ac565b60405180910390fd5b8160055f8673ffffffffffffffffffffffffffffffffffffffff1673ffffffffffffffffffffffffffffffffffffffff1681526020019081526020015f205f3373ffffffffffffffffffffffffffffffffffffffff1673ffffffffffffffffffffffffffffffffffffffff1681526020019081526020015f20541015610554576040517f08c379a000000000000000000000000000000000000000000000000000000000815260040161054b90611214565b60405180910390fd5b8160055f8673ffffffffffffffffffffffffffffffffffffffff1673ffffffffffffffffffffffffffffffffffffffff1681526020019081526020015f205f3373ffffffffffffffffffffffffffffffffffffffff1673ffffffffffffffffffffffffffffffffffffffff1681526020019081526020015f205f8282546105db919061125f565b925050819055508160045f8673ffffffffffffffffffffffffffffffffffffffff1673ffffffffffffffffffffffffffffffffffffffff1681526020019081526020015f205f82825461062e919061125f565b925050819055508160045f8573ffffffffffffffffffffffffffffffffffffffff1673ffffffffffffffffffffffffffffffffffffffff1681526020019081526020015f205f8282546106819190611292565b925050819055508273ffffffffffffffffffffffffffffffffffffffff168473ffffffffffffffffffffffffffffffffffffffff167fddf252ad1be2c89b69c2b068fc378daa952ba7f163c4a11628f55a4df523b3ef846040516106e59190610fd4565b60405180910390a3600190509392505050565b60025f9054906101000a900460ff1681565b5f8160045f3373ffffffffffffffffffffffffffffffffffffffff1673ffffffffffffffffffffffffffffffffffffffff1681526020019081526020015f2054101561078b576040517f08c379a00000000000000000000000000000000000000000000000000000000081526004016107829061130f565b60405180910390fd5b8160045f3373ffffffffffffffffffffffffffffffffffffffff1673ffffffffffffffffffffffffffffffffffffffff1681526020019081526020015f205f8282546107d7919061125f565b925050819055508160035f8282546107ef919061125f565b925050819055505f73ffffffffffffffffffffffffffffffffffffffff163373ffffffffffffffffffffffffffffffffffffffff167fddf252ad1be2c89b69c2b068fc378daa952ba7f163c4a11628f55a4df523b3ef846040516108539190610fd4565b60405180910390a360019050919050565b6004602052805f5260405f205f915090505481565b5f8160045f8573ffffffffffffffffffffffffffffffffffffffff1673ffffffffffffffffffffffffffffffffffffffff1681526020019081526020015f205410156108fa576040517f08c379a00000000000000000000000000000000000000000000000000000000081526004016108f19061130f565b60405180910390fd5b8160055f8573ffffffffffffffffffffffffffffffffffffffff1673ffffffffffffffffffffffffffffffffffffffff1681526020019081526020015f205f3373ffffffffffffffffffffffffffffffffffffffff1673ffffffffffffffffffffffffffffffffffffffff1681526020019081526020015f205410156109b5576040517f08c379a00000000000000000000000000000000000000000000000000000000081526004016109ac90611214565b60405180910390fd5b8160055f8573ffffffffffffffffffffffffffffffffffffffff1673ffffffffffffffffffffffffffffffffffffffff1681526020019081526020015f205f3373ffffffffffffffffffffffffffffffffffffffff1673ffffffffffffffffffffffffffffffffffffffff1681526020019081526020015f205f828254610a3c919061125f565b925050819055508160045f8573ffffffffffffffffffffffffffffffffffffffff1673ffffffffffffffffffffffffffffffffffffffff1681526020019081526020015f205f828254610a8f919061125f565b925050819055508160035f828254610aa7919061125f565b925050819055505f73ffffffffffffffffffffffffffffffffffffffff168373ffffffffffffffffffffffffffffffffffffffff167fddf252ad1be2c89b69c2b068fc378daa952ba7f163c4a11628f55a4df523b3ef84604051610b0b9190610fd4565b60405180910390a36001905092915050565b60018054610b2a90611132565b80601f0160208091040260200160405190810160405280929190818152602001828054610b5690611132565b8015610ba15780601f10610b7857610100808354040283529160200191610ba1565b820191905f5260205f20905b815481529060010190602001808311610b8457829003601f168201915b505050505081565b5f8160045f3373ffffffffffffffffffffffffffffffffffffffff1673ffffffffffffffffffffffffffffffffffffffff1681526020019081526020015f20541015610c2a576040517f08c379a0000000000000000000000000000000000000000000000000000000008152600401610c21906111ac565b60405180910390fd5b8160045f3373ffffffffffffffffffffffffffffffffffffffff1673ffffffffffffffffffffffffffffffffffffffff1681526020019081526020015f205f828254610c76919061125f565b925050819055508160045f8573ffffffffffffffffffffffffffffffffffffffff1673ffffffffffffffffffffffffffffffffffffffff1681526020019081526020015f205f828254610cc99190611292565b925050819055508273ffffffffffffffffffffffffffffffffffffffff163373ffffffffffffffffffffffffffffffffffffffff167fddf252ad1be2c89b69c2b068fc378daa952ba7f163c4a11628f55a4df523b3ef84604051610d2d9190610fd4565b60405180910390a36001905092915050565b6005602052815f5260405f20602052805f5260405f205f91509150505481565b8060045f8473ffffffffffffffffffffffffffffffffffffffff1673ffffffffffffffffffffffffffffffffffffffff1681526020019081526020015f205f828254610dab9190611292565b925050819055508060035f828254610dc39190611292565b925050819055508173ffffffffffffffffffffffffffffffffffffffff165f73ffffffffffffffffffffffffffffffffffffffff167fddf252ad1be2c89b69c2b068fc378daa952ba7f163c4a11628f55a4df523b3ef83604051610e279190610fd4565b60405180910390a35050565b5f81519050919050565b5f82825260208201905092915050565b8281835e5f83830152505050565b5f601f19601f8301169050919050565b5f610e7582610e33565b610e7f8185610e3d565b9350610e8f818560208601610e4d565b610e9881610e5b565b840191505092915050565b5f6020820190508181035f830152610ebb8184610e6b565b905092915050565b5f5ffd5b5f73ffffffffffffffffffffffffffffffffffffffff82169050919050565b5f610ef082610ec7565b9050919050565b610f0081610ee6565b8114610f0a575f5ffd5b50565b5f81359050610f1b81610ef7565b92915050565b5f819050919050565b610f3381610f21565b8114610f3d575f5ffd5b50565b5f81359050610f4e81610f2a565b92915050565b5f5f60408385031215610f6a57610f69610ec3565b5b5f610f7785828601610f0d565b9250506020610f8885828601610f40565b9150509250929050565b5f8115159050919050565b610fa681610f92565b82525050565b5f602082019050610fbf5f830184610f9d565b92915050565b610fce81610f21565b82525050565b5f602082019050610fe75f830184610fc5565b92915050565b5f5f5f6060848603121561100457611003610ec3565b5b5f61101186828701610f0d565b935050602061102286828701610f0d565b925050604061103386828701610f40565b9150509250925092565b5f60ff82169050919050565b6110528161103d565b82525050565b5f60208201905061106b5f830184611049565b92915050565b5f6020828403121561108657611085610ec3565b5b5f61109384828501610f40565b91505092915050565b5f602082840312156110b1576110b0610ec3565b5b5f6110be84828501610f0d565b91505092915050565b5f5f604083850312156110dd576110dc610ec3565b5b5f6110ea85828601610f0d565b92505060206110fb85828601610f0d565b9150509250929050565b7f4e487b71000000000000000000000000000000000000000000000000000000005f52602260045260245ffd5b5f600282049050600182168061114957607f821691505b60208210810361115c5761115b611105565b5b50919050565b7f4e6f7420656e6f7567682043435420746f6b656e7300000000000000000000005f82015250565b5f611196601583610e3d565b91506111a182611162565b602082019050919050565b5f6020820190508181035f8301526111c38161118a565b9050919050565b7f416c6c6f77616e636520657863656564656400000000000000000000000000005f82015250565b5f6111fe601283610e3d565b9150611209826111ca565b602082019050919050565b5f6020820190508181035f83015261122b816111f2565b9050919050565b7f4e487b71000000000000000000000000000000000000000000000000000000005f52601160045260245ffd5b5f61126982610f21565b915061127483610f21565b925082820390508181111561128c5761128b611232565b5b92915050565b5f61129c82610f21565b91506112a783610f21565b92508282019050808211156112bf576112be611232565b5b92915050565b7f496e73756666696369656e742043435420696e2077616c6c65740000000000005f82015250565b5f6112f9601a83610e3d565b9150611304826112c5565b602082019050919050565b5f6020820190508181035f830152611326816112ed565b905091905056fea26469706673582212206c37cdac00f6e1972af99a0f0e74a6e6dfbda3c491f7db7fc974bf4b8429c5e964736f6c63430008220033",
  "immutableReferences": {},
  "source": "// SPDX-License-Identifier: MIT\npragma solidity ^0.8.19;\n\ncontract MintTokens {\n    string public name = \"Carbon Credit Token\";\n    string public symbol = \"CCT\";\n    uint8 public decimals = 18;\n\n    uint256 public totalSupply;\n    mapping(address => uint256) public balanceOf;\n    \n    // Thêm mapping quản lý quyền chi tiêu (Bắt buộc của ERC-20)\n    mapping(address => mapping(address => uint256)) public allowance;\n\n    // Các sự kiện bắt buộc của ERC-20 để Frontend (MetaMask) theo dõi được\n    event Transfer(address indexed from, address indexed to, uint256 value);\n    event Approval(address indexed owner, address indexed spender, uint256 value);\n\n    // Phát hành tín chỉ cho Generator\n    function mintTokens(address _generator, uint256 _amount) external {\n        balanceOf[_generator] += _amount;\n        totalSupply += _amount;\n        emit Transfer(address(0), _generator, _amount);\n    }\n\n    // Chuyển token trực tiếp\n    function transfer(address _to, uint256 _amount) external returns (bool) {\n        require(balanceOf[msg.sender] >= _amount, \"Not enough CCT tokens\");\n        balanceOf[msg.sender] -= _amount;\n        balanceOf[_to] += _amount;\n        emit Transfer(msg.sender, _to, _amount);\n        return true;\n    }\n\n    // Cấp quyền cho người khác (hoặc AMM Contract) tiêu tiền của mình\n    function approve(address _spender, uint256 _amount) external returns (bool) {\n        allowance[msg.sender][_spender] = _amount;\n        emit Approval(msg.sender, _spender, _amount);\n        return true;\n    }\n\n    // Hợp đồng khác chuyển token (Ví dụ: AMM thực hiện lệnh Swap)\n    function transferFrom(address _sender, address _receiver, uint256 _amount) external returns (bool) {\n        require(balanceOf[_sender] >= _amount, \"Not enough CCT tokens\");\n        require(allowance[_sender][msg.sender] >= _amount, \"Allowance exceeded\"); // Bảo mật: Phải được cho phép\n\n        allowance[_sender][msg.sender] -= _amount;\n        balanceOf[_sender] -= _amount;\n        balanceOf[_receiver] += _amount;\n        \n        emit Transfer(_sender, _receiver, _amount);\n        return true;\n    }\n\n    // Consumer tự tiêu hủy token để bù đắp\n    function burn(uint256 _amount) external returns (bool) {\n        require(balanceOf[msg.sender] >= _amount, \"Insufficient CCT in wallet\");\n        balanceOf[msg.sender] -= _amount;\n        totalSupply -= _amount;\n        emit Transfer(msg.sender, address(0), _amount);\n        return true;\n    }\n\n    // Validator (hoặc hợp đồng được ủy quyền) gọi để tiêu hủy token của Consumer\n    function burnFrom(address _from, uint256 _amount) external returns (bool) {\n        require(balanceOf[_from] >= _amount, \"Insufficient CCT in wallet\");\n        require(allowance[_from][msg.sender] >= _amount, \"Allowance exceeded\");\n\n        allowance[_from][msg.sender] -= _amount;\n        balanceOf[_from] -= _amount;\n        totalSupply -= _amount;\n        \n        emit Transfer(_from, address(0), _amount);\n        return true;\n    }\n}\n",
  "sourcePath": "/home/tund/repos/carbon-credit-ecosystem/contracts/MintTokens.sol",
  "compiler": {
    "name": "solc",
    "version": "0.8.34+commit.80d5c536.Emscripten.clang"
  },
  "schemaVersion": "3.4.16",
  "updatedAt": "2026-02-25T09:22:15.973Z",
  "networkType": "ethereum",
  "devdoc": {
    "kind": "dev",
    "methods": {},
    "version": 1
  },
  "userdoc": {
    "kind": "user",
    "methods": {},
    "version": 1
  }
}