{
  "contractName": "MultiValidator",
  "abi": [
    {
      "inputs": [
        {
          "internalType": "address",
          "name": "_validator",
          "type": "address"
        },
        {
          "internalType": "address",
          "name": "_mint",
          "type": "address"
        },
        {
          "internalType": "address",
          "name": "_nftContract",
          "type": "address"
        }
      ],
      "stateMutability": "payable",
      "type": "constructor",
      "payable": true
    },
    {
      "stateMutability": "payable",
      "type": "fallback",
      "payable": true
    },
    {
      "inputs": [],
      "name": "approvalCount",
      "outputs": [
        {
          "internalType": "uint256",
          "name": "",
          "type": "uint256"
        }
      ],
      "stateMutability": "view",
      "type": "function",
      "constant": true
    },
    {
      "inputs": [],
      "name": "approveNFT",
      "outputs": [
        {
          "internalType": "uint256",
          "name": "",
          "type": "uint256"
        }
      ],
      "stateMutability": "view",
      "type": "function",
      "constant": true
    },
    {
      "inputs": [],
      "name": "consumer_receiver",
      "outputs": [
        {
          "internalType": "address payable",
          "name": "",
          "type": "address"
        }
      ],
      "stateMutability": "view",
      "type": "function",
      "constant": true
    },
    {
      "inputs": [],
      "name": "creditAmount",
      "outputs": [
        {
          "internalType": "uint256",
          "name": "",
          "type": "uint256"
        }
      ],
      "stateMutability": "view",
      "type": "function",
      "constant": true
    },
    {
      "inputs": [],
      "name": "mint",
      "outputs": [
        {
          "internalType": "address",
          "name": "",
          "type": "address"
        }
      ],
      "stateMutability": "view",
      "type": "function",
      "constant": true
    },
    {
      "inputs": [],
      "name": "nftContract",
      "outputs": [
        {
          "internalType": "address",
          "name": "",
          "type": "address"
        }
      ],
      "stateMutability": "view",
      "type": "function",
      "constant": true
    },
    {
      "inputs": [],
      "name": "receiver",
      "outputs": [
        {
          "internalType": "address payable",
          "name": "",
          "type": "address"
        }
      ],
      "stateMutability": "view",
      "type": "function",
      "constant": true
    },
    {
      "inputs": [],
      "name": "retireAmount",
      "outputs": [
        {
          "internalType": "uint256",
          "name": "",
          "type": "uint256"
        }
      ],
      "stateMutability": "view",
      "type": "function",
      "constant": true
    },
    {
      "inputs": [],
      "name": "validator",
      "outputs": [
        {
          "internalType": "address",
          "name": "",
          "type": "address"
        }
      ],
      "stateMutability": "view",
      "type": "function",
      "constant": true
    },
    {
      "stateMutability": "payable",
      "type": "receive",
      "payable": true
    },
    {
      "inputs": [
        {
          "internalType": "address payable",
          "name": "_consumer",
          "type": "address"
        },
        {
          "internalType": "uint256",
          "name": "_amount",
          "type": "uint256"
        }
      ],
      "name": "burnTokens",
      "outputs": [],
      "stateMutability": "nonpayable",
      "type": "function"
    },
    {
      "inputs": [
        {
          "internalType": "address payable",
          "name": "_generator",
          "type": "address"
        },
        {
          "internalType": "uint256",
          "name": "_sequestrationTons",
          "type": "uint256"
        }
      ],
      "name": "voteToApprove",
      "outputs": [],
      "stateMutability": "nonpayable",
      "type": "function"
    }
  ],
  "bytecode": "0x60806040525f6004555f600555604051610b76380380610b76833981810160405281019061002d91906101c0565b5f73ffffffffffffffffffffffffffffffffffffffff168373ffffffffffffffffffffffffffffffffffffffff160361009b576040517f08c379a00000000000000000000000000000000000000000000000000000000081526004016100929061026a565b60405180910390fd5b825f5f6101000a81548173ffffffffffffffffffffffffffffffffffffffff021916908373ffffffffffffffffffffffffffffffffffffffff1602179055508160025f6101000a81548173ffffffffffffffffffffffffffffffffffffffff021916908373ffffffffffffffffffffffffffffffffffffffff1602179055508060085f6101000a81548173ffffffffffffffffffffffffffffffffffffffff021916908373ffffffffffffffffffffffffffffffffffffffff160217905550505050610288565b5f5ffd5b5f73ffffffffffffffffffffffffffffffffffffffff82169050919050565b5f61018f82610166565b9050919050565b61019f81610185565b81146101a9575f5ffd5b50565b5f815190506101ba81610196565b92915050565b5f5f5f606084860312156101d7576101d6610162565b5b5f6101e4868287016101ac565b93505060206101f5868287016101ac565b9250506040610206868287016101ac565b9150509250925092565b5f82825260208201905092915050565b7f56616c696461746f7220616464726573732063616e6e6f74206265207a65726f5f82015250565b5f610254602083610210565b915061025f82610220565b602082019050919050565b5f6020820190508181035f83015261028181610248565b9050919050565b6108e1806102955f395ff3fe60806040526004361061009f575f3560e01c80636884d0a6116100635780636884d0a6146101725780639995261a1461019c5780639b6644ea146101c6578063d56d229d146101f0578063dbfcec231461021a578063f7260d3e14610242576100a0565b80630d1118ce146100a25780630e53b169146100ca5780631249c58b146100f45780633a5381b51461011e5780633dc1195714610148576100a0565b5b005b3480156100ad575f5ffd5b506100c860048036038101906100c391906106ad565b61026c565b005b3480156100d5575f5ffd5b506100de610423565b6040516100eb91906106fa565b60405180910390f35b3480156100ff575f5ffd5b50610108610429565b6040516101159190610733565b60405180910390f35b348015610129575f5ffd5b5061013261044e565b60405161013f9190610733565b60405180910390f35b348015610153575f5ffd5b5061015c610472565b60405161016991906106fa565b60405180910390f35b34801561017d575f5ffd5b50610186610478565b60405161019391906106fa565b60405180910390f35b3480156101a7575f5ffd5b506101b061047e565b6040516101bd91906106fa565b60405180910390f35b3480156101d1575f5ffd5b506101da610484565b6040516101e7919061075b565b60405180910390f35b3480156101fb575f5ffd5b506102046104a9565b6040516102119190610733565b60405180910390f35b348015610225575f5ffd5b50610240600480360381019061023b91906106ad565b6104ce565b005b34801561024d575f5ffd5b506102566105f7565b604051610263919061075b565b60405180910390f35b60055f81548092919061027e906107a1565b91905055506001600554036102d9578160065f6101000a81548173ffffffffffffffffffffffffffffffffffffffff021916908373ffffffffffffffffffffffffffffffffffffffff1602179055508060078190555061041f565b60026005540361041e575f670de0b6b3a76400006007546102fa91906107e8565b905060025f9054906101000a900473ffffffffffffffffffffffffffffffffffffffff1673ffffffffffffffffffffffffffffffffffffffff166379cc679084836040518363ffffffff1660e01b8152600401610358929190610884565b5f604051808303815f87803b15801561036f575f5ffd5b505af1158015610381573d5f5f3e3d5ffd5b5050505060085f9054906101000a900473ffffffffffffffffffffffffffffffffffffffff1673ffffffffffffffffffffffffffffffffffffffff16637f26b7e084836040518363ffffffff1660e01b81526004016103e1929190610884565b5f604051808303815f87803b1580156103f8575f5ffd5b505af115801561040a573d5f5f3e3d5ffd5b505050505f6005819055505f600781905550505b5b5050565b60075481565b60025f9054906101000a900473ffffffffffffffffffffffffffffffffffffffff1681565b5f5f9054906101000a900473ffffffffffffffffffffffffffffffffffffffff1681565b60055481565b60045481565b60035481565b60065f9054906101000a900473ffffffffffffffffffffffffffffffffffffffff1681565b60085f9054906101000a900473ffffffffffffffffffffffffffffffffffffffff1681565b60045f8154809291906104e0906107a1565b919050555060016004540361054e578160015f6101000a81548173ffffffffffffffffffffffffffffffffffffffff021916908373ffffffffffffffffffffffffffffffffffffffff160217905550670de0b6b3a76400008161054391906107e8565b6003819055506105f3565b6002600454036105f25760025f9054906101000a900473ffffffffffffffffffffffffffffffffffffffff1673ffffffffffffffffffffffffffffffffffffffff1663f0dda65c836003546040518363ffffffff1660e01b81526004016105b6929190610884565b5f604051808303815f87803b1580156105cd575f5ffd5b505af11580156105df573d5f5f3e3d5ffd5b505050505f6004819055505f6003819055505b5b5050565b60015f9054906101000a900473ffffffffffffffffffffffffffffffffffffffff1681565b5f5ffd5b5f73ffffffffffffffffffffffffffffffffffffffff82169050919050565b5f61064982610620565b9050919050565b6106598161063f565b8114610663575f5ffd5b50565b5f8135905061067481610650565b92915050565b5f819050919050565b61068c8161067a565b8114610696575f5ffd5b50565b5f813590506106a781610683565b92915050565b5f5f604083850312156106c3576106c261061c565b5b5f6106d085828601610666565b92505060206106e185828601610699565b9150509250929050565b6106f48161067a565b82525050565b5f60208201905061070d5f8301846106eb565b92915050565b5f61071d82610620565b9050919050565b61072d81610713565b82525050565b5f6020820190506107465f830184610724565b92915050565b6107558161063f565b82525050565b5f60208201905061076e5f83018461074c565b92915050565b7f4e487b71000000000000000000000000000000000000000000000000000000005f52601160045260245ffd5b5f6107ab8261067a565b91507fffffffffffffffffffffffffffffffffffffffffffffffffffffffffffffffff82036107dd576107dc610774565b5b600182019050919050565b5f6107f28261067a565b91506107fd8361067a565b925082820261080b8161067a565b9150828204841483151761082257610821610774565b5b5092915050565b5f819050919050565b5f61084c61084761084284610620565b610829565b610620565b9050919050565b5f61085d82610832565b9050919050565b5f61086e82610853565b9050919050565b61087e81610864565b82525050565b5f6040820190506108975f830185610875565b6108a460208301846106eb565b939250505056fea2646970667358221220061e69c7b376ae5174115676f55d02de995ae7e5f41db1e57f00da3c15dc457e64736f6c63430008220033",
  "immutableReferences": {},
  "source": "// SPDX-License-Identifier: MIT\npragma solidity ^0.8.19;\n\ninterface IMintContract{\n    function mintTokens(address generator, uint256 amount) external;\n    function burnFrom(address consumer,uint256 amount) external;\n}\n\ninterface IMintNFT{\n    function mintCRC(address consumer, uint256 amount) external;\n}\n\ncontract MultiValidator {\n    address public validator; // Validator\n    address payable public receiver; // Generator   \n    address public mint;  //mint\n    uint256 public creditAmount; // Hold credits\n    uint256 public approvalCount=0; // Approvals\n    \n    //consumer part\n    uint256 public approveNFT=0; \n    address payable public consumer_receiver;\n    uint256 public retireAmount;\n    address public nftContract;\n\n    uint256 constant CCT_DECIMALS = 10**18; // Scaling factor\n\n    constructor(address _validator, address _mint, address _nftContract) payable {\n        require(_validator != address(0), \"Validator address cannot be zero\");\n        validator = _validator;\n        mint=_mint;\n        nftContract=_nftContract;\n    }\n\n    function burnTokens(address payable _consumer,uint256 _amount) public {\n        approveNFT++;\n\n        if(approveNFT==1){\n            consumer_receiver=_consumer;\n            retireAmount=_amount;\n        }\n        else if (approveNFT==2){\n            uint256 scaledAmount = retireAmount * CCT_DECIMALS;\n            IMintContract(mint).burnFrom(_consumer, scaledAmount);\n\n            //NFT MINT OVER HERE\n            IMintNFT(nftContract).mintCRC(_consumer, scaledAmount);\n\n            //reset\n            approveNFT=0;\n            retireAmount=0;\n        }\n    }\n\n    function voteToApprove(address payable _generator, uint256 _sequestrationTons) public{\n        approvalCount++;\n\n        if(approvalCount==1){\n            receiver = _generator;\n            creditAmount = _sequestrationTons  * 1 ether; // store first credit\n        }\n        else if(approvalCount==2){\n            // require(address(this).balance >= creditAmount, \"Insufficient contract balance\");\n            // receiver.transfer(creditAmount); \n\n            IMintContract(mint).mintTokens(_generator, creditAmount);\n            approvalCount = 0; // Reset the count\n            creditAmount = 0; // Reset the credit\n        }\n    }\n    \n    receive() external payable {}\n    fallback() external payable {}\n}\n",
  "sourcePath": "/home/tund/repos/carbon-credit-ecosystem/contracts/MultiValidator.sol",
  "compiler": {
    "name": "solc",
    "version": "0.8.34+commit.80d5c536.Emscripten.clang"
  },
  "schemaVersion": "3.4.16",
  "updatedAt": "2026-02-25T09:22:15.969Z",
  "networkType": "ethereum",
  "devdoc": {
    "kind": "dev",
    "methods": {},
    "version": 1
  },
  "userdoc": {
    "kind": "user",
    "methods": {},
    "version": 1
  }
}